:100000000C94E9000C9411010C9411010C94110151
:100010000C9411010C9411010C9411010C94110118
:100020000C9411010C9411010C94EB020C945403E8
:100030000C9411010C9411010C9411010C941101F8
:100040000C9411010C9411010C9411010C941101E8
:100050000C9411010C9411010C9411010C941F07C4
:100060000C9411010C9411010C9411010C941101C8
:100070000C9411010C9411010C9411010C941101B8
:100080000C9411010C9411010C9411010C941101A8
:100090000C9411010C9411010C9411010C94110198
:1000A0000C9411010C9411010C94110127022A02E5
:1000B00019021D0223024B024B024B022E02320296
:1000C00036023C0240024B024602070605040100CC
:1000D000080A0B0C0D0900000000240027002A006C
:1000E0002D00300000000000250028002B002E000D
:1000F0003100000000002300260029002C002F0002
:100100000000000200090F0000030401000C0000C1
:100110000000000000000000000000000000080BCC
:1001200000020202010009040000010202000005B1
:1001300024001001052401010104240206052406FF
:1001400000010705810310004009040100020A00B4
:10015000000007050202400000070583024000007E
:100160000403090412010002EF020140412336801A
:1001700000010102030141726475696E6F204C4CED
:10018000430044726F70776174657220436F6E74C0
:10019000726F6C00040404040403040502020202EA
:1001A000040302020202060606060606040405020D
:1001B000020404080201104080401020408040806A
:1001C00008020401804020100201208004204040E9
:1001D000AA1F11241FBECFEFDAE0DEBFCDBF12E0B1
:1001E000A0E0B1E0E6EDFDE402C005900D92AC3D6B
:1001F000B107D9F723E0ACEDB2E001C01D92A63BF8
:10020000B207E1F710E0C9EED0E004C02197FE018B
:100210000E948F25C83ED107C9F70E94CF130C94C6
:10022000E9260C9400004091EA025091EB022091E3
:10023000E8023091E90242175307B4F49091E800C4
:100240009570E1F39091E80092FD19C08093F10060
:100250008091EA029091EB0201968F739927892B86
:1002600019F48EEF8093E8008091EA029091EB02FE
:1002700001969093EB028093EA0281E0089580E07A
:100280000895CF92DF92EF92FF920F931F93CF9337
:10029000DF931F92CDB7DEB7182F062FE42E862FDF
:1002A000880F8E5F99830E94130183E00E941301DF
:1002B000F12EC12E9981D92E8C2D8F19801798F48B
:1002C000F601E7FE02C0849101C080810E94130103
:1002D000182F80E00E9413018123FFEFCF1ADF0A5D
:1002E0008111EACF01C081E00F90DF91CF911F9182
:1002F0000F91FF90EF90DF90CF900895DF92EF92F3
:10030000FF920F931F93CF93DF93D82E8A017B0127
:10031000E40EF51EEB01CE15DF0571F0D7FE03C02C
:10032000FE01849101C088810E94130121968111F0
:10033000F2CF8FEF9FEF01C0C801DF91CF911F91E6
:100340000F91FF90EF90DF900895CF92DF92EF92A0
:10035000FF920F931F93CF93DF936C017A018B0170
:10036000C0E0D0E0CE15DF0589F0D8016D918D0198
:10037000D601ED91FC910190F081E02DC601099527
:10038000892B11F47E0102C02196ECCFC701DF91C9
:10039000CF911F910F91FF90EF90DF90CF90089534
:1003A000CF93DF931F92CDB7DEB76983DC01ED9168
:1003B000FC910280F381E02D41E050E0BE016F5FCF
:1003C0007F4F09950F90DF91CF91089583E080933F
:1003D000E9008091F200882319F08AE38093E80015
:1003E0000895FC018485958597FD0BC09FB7F8940F
:1003F00082E08093E9008091F2009FBF90E0019637
:1004000008959FB7F89482E08093E9008091F2000C
:100410009FBF90E00895089580E090E0089590E0F7
:10042000FC013197EF30F105B0F5EA5AFF4F0C941B
:100430008F25809180008F7703C0809180008F7D11
:1004400080938000089580918000877FF9CF84B5E4
:100450008F7702C084B58F7D84BD08958091900010
:100460008F7707C0809190008F7D03C080919000AE
:10047000877F8093900008958091C0008F7703C09C
:100480008091C0008F7D8093C00008958091C2004C
:10049000877F8093C20008953FB7F8948091E4026B
:1004A0009091E502A091E602B091E70226B5A89BE3
:1004B00005C02F3F19F00196A11DB11D3FBFBA2FF6
:1004C000A92F982F8827820F911DA11DB11DBC0156
:1004D000CD0142E0660F771F881F991F4A95D1F71B
:1004E00008950E94E4260F931F93CF93DF931F92EA
:1004F000CDB7DEB782E0898342E450E06EE171E07F
:1005000080E80E947E010E94BB13DC0112960D91CF
:100510001C9113970115110569F0D801ED91FC911B
:100520000280F381E02DBE016F5F7F4FC801099506
:1005300097FF07C089810F90DF91CF911F910F9195
:100540000895F80100851185E5CF0E94AA1390E077
:1005500008950F931F93CF93DF931F92CDB7DEB70C
:100560008C01FC018485958597FF0EC0CE01019614
:100570000E948113019719F4298130E002C02FEF06
:100580003FEFF80135872487F801848595850F9022
:10059000DF91CF911F910F910895CF93DF931F9219
:1005A000CDB7DEB7FC018485958597FD05C02FEF9B
:1005B0003FEF358724870BC0CE0101960E9481133F
:1005C000019719F4898190E002C08FEF9FEF0F909F
:1005D000DF91CF9108951F920F920FB60F921124C1
:1005E0008F939F938091E1009091E100937F90938E
:1005F000E10083FF0FC01092E90091E09093EB00BF
:100600001092EC0092E39093ED001092A50398E015
:100610009093F00082FF1CC093E09093E9009091CA
:10062000F200992319F09AE39093E8009091EC027C
:10063000992329F09091EC0291509093EC029091C3
:10064000A403992329F09091A40391509093A403BB
:1006500084FF10C08091E2008E7E81608093E20072
:100660008091E1008F7E8093E1008091DD028E7E9B
:10067000806111C080FF11C08091E2008E7E806198
:100680008093E2008091E1008E7E8093E100809172
:10069000DD028E7E81608093DD029F918F910F90AD
:1006A0000FBE0F901F9018951F920F920FB60F92CA
:1006B0001124CF92DF92EF92FF920F931F932F930B
:1006C0003F934F935F936F937F938F939F93AF93DA
:1006D000BF93EF93FF93CF93DF93CDB7DEB76C97C4
:1006E000DEBFCDBF1092E9008091E80083FFFFC11B
:1006F000FE017596DE2ECF2E88E08E0F8E1729F024
:100700009091F10090833196F9CF84E68093A40311
:1007100082EF8093E8008D8987FF05C09091E80003
:1007200090FFFCCF03C09EEF9093E800982F907647
:1007300009F0C5C09E892F89188D91110CC0803891
:1007400029F48091DE028093F10002C01092F10042
:100750001092F1004FC1422F50E0512B913051F4D3
:10076000811148C14130510509F044C18091DE0238
:100770008D7F0BC0933061F481113CC14130510534
:1007800009F038C18091DE0282608093DE0232C1BE
:10079000953041F48091E80080FFFCCF20682093E1
:1007A000E30028C1963009F05EC0EB8CFC8C1092FF
:1007B000E9001092EB021092EA02123091F51092C9
:1007C000E9021092E8020E94730299E0BE016F5F95
:1007D0007F4FDB01E92F1D92EA95E9F799831A8390
:1007E00091E09E8390EA98879AEF99872091EA0298
:1007F0003091EB02275F3F4F3C832B838D83109218
:10080000E9001092EB021092EA02F092E902E09203
:10081000E80249E050E080E00E947E010E947302FD
:10082000E9C0F092E902E092E8020E94BB13DC0109
:100830001296ED90FC901397E114F10409F4C7C0EF
:10084000D701ED91FC910480F581E02D6D2D7C2D7B
:10085000C7010995009719F00CF0CCC0CFC0F70183
:10086000E084F184E9CF973009F4C8C0983021F4CE
:1008700081E08093F100BEC0993009F0BBC0837065
:1008800009F0BCC0E7E1F1E081E021E036E39081CE
:10089000992361F08093E9002093EB00919190936C
:1008A000EC003093ED008F5F873089F78EE78093FF
:1008B000EA001092EA008F898093A5039BC08B8D7C
:1008C0009C8D1092E9001092EB021092EA02909334
:1008D000E9028093E802898D81115FC08E899D892C
:1008E000913A59F4813209F089C047E050E064E060
:1008F00071E080E00E947E017DC0913209F07EC0EF
:10090000833289F4888D90E0982F88272F89822B55
:10091000A0E0B0E08093000190930101A093020158
:10092000B093030167C08032B1F48091E80082FF88
:10093000FCCFE4E0F1E087E08E0F8E1729F0909174
:10094000F10090833196F9CF84E68093A4038BEF76
:100950008093E80006C0823209F04CC08F898093F2
:100960000B018091DC02882319F0EEEFFAE002C05F
:10097000E0E0F8E08091040190910501A09106016A
:10098000B0910701803B9440A105B10509F07AC000
:1009900080910B0180FF92C075C00E94BB13DC01E7
:1009A00012960D911C9113970115110539F1D8017B
:1009B000ED91FC910190F081E02D6D2D7C2DC80111
:1009C0000995811117C0F80100851185EDCF11300F
:1009D00009F44EC0133091F48F89882309F445C07F
:1009E000823081F440E861E182E891E00E944101B7
:1009F000882321F08EEF8093E80079C081E2809314
:100A0000EB0075C0813029F440E86BE086E791E0A7
:100A1000EDCF833099F70E94BB13DC011296ED9065
:100A2000FC9013978E010F5F1F4F6801E114F104D2
:100A300079F0D701ED91FC910680F781E02DB801A6
:100A4000C7010995080F111DF701E084F184EECF6D
:100A5000D8011C92F60101900020E9F73197BF01FF
:100A60006C197D0940E0C601C1CF60E671E002C0AB
:100A700064E671E06115710509F2FB01449150E0F3
:100A800080E838CF0FB6F894A8958091600088610F
:100A900080936000109260000FBEA895EE3F2AE0A0
:100AA000F20739F08091FE0A9091FF0A91838083CA
:100AB000A1CF1092FF0A1092FE0A9CCFEE3F8AE06F
:100AC000F80731F0808191819093FF0A8093FE0AAC
:100AD00087E797E7918380839BE088E10FB6F894DE
:100AE000A895809360000FBE9093600083CF6C96B2
:100AF0000FB6F894DEBF0FBECDBFDF91CF91FF914F
:100B0000EF91BF91AF919F918F917F916F915F9185
:100B10004F913F912F911F910F91FF90EF90DF9098
:100B2000CF900F900FBE0F901F901895CF93DF932B
:100B3000282F30E0F901E050FF4F8491F901EE5485
:100B4000FE4FD491F901EC56FE4FC491CC2391F0A5
:100B500081110E940F02EC2FF0E0EE0FFF1FEE500C
:100B6000FF4FA591B491EC91ED2381E090E021F449
:100B700080E002C080E090E0DF91CF9108951F9364
:100B8000CF93DF93282F30E0F901E050FF4F84919D
:100B9000F901EE54FE4FD491F901EC56FE4FC49189
:100BA000CC23C9F0162F81110E940F02EC2FF0E028
:100BB000EE0FFF1FEC51FF4FA591B4918FB7F89442
:100BC000111105C09C91ED2FE095E92302C0EC9135
:100BD000ED2BEC938FBFDF91CF911F910895CF93B1
:100BE000DF9390E0FC01EE54FE4F2491FC01EC56A3
:100BF000FE4F8491882361F190E0880F991FFC01DA
:100C0000EA52FF4FC591D491FC01EC51FF4FA591E1
:100C1000B491611109C09FB7F8948881209582230F
:100C20008883EC912E230BC0623061F49FB7F89457
:100C30003881822F809583238883EC912E2B2C93EF
:100C40009FBF06C08FB7F894E8812E2B28838FBFF3
:100C5000DF91CF910895823108F08251E82FF0E0C2
:100C6000E653FF4FE49180917B00E3FB222720F9BC
:100C700030E095E0220F331F9A95E1F78F7D282B06
:100C800020937B00E770E064E0937C0080917A0021
:100C9000806480937A0080917A0086FDFCCF8091F9
:100CA00078002091790090E0922B08958F929F9286
:100CB000AF92BF92CF92DF92EF92FF926B017C01D5
:100CC0000E944C024B015C01C114D104E104F10407
:100CD000F1F00E944C02DC01CB0188199909AA09A4
:100CE000BB09883E9340A105B10570F321E0C21A0B
:100CF000D108E108F10888EE880E83E0981EA11C57
:100D0000B11CC114D104E104F10419F7DDCFFF9047
:100D1000EF90DF90CF90BF90AF909F908F9008950D
:100D20008F929F92AF92BF92CF92DF92EF92FF92FB
:100D30000F931F93CF93DF935C016B017A01809136
:100D40000B01882309F459C08091A503882309F475
:100D500054C08091DD0280FF05C08091E000826078
:100D60008093E000E70110E00AEF83E0882E9AE329
:100D7000992E2097D1F10E94AA13811109C0015028
:100D8000E1F161E070E080E090E00E945606F1CF72
:100D9000282F30E0C217D3070CF48C2F4FB7F894EC
:100DA0008092E9009091E80095FF1DC0282F30E067
:100DB000C21BD30BF601982F915020F081918093A4
:100DC000F100FACFC20ED31E112319F09092E80061
:100DD00009C08091E80085FD06C09092E80011E00E
:100DE000209709F010E04FBFC4CF1111C4CF84E6A3
:100DF0008093EC021E141F0444F081E090E0F501A2
:100E00009383828380E090E001C0C701DF91CF919E
:100E10001F910F91FF90EF90DF90CF90BF90AF9018
:100E20009F908F9008952FB7F8946091E002709191
:100E3000E1028091E2029091E3022FBF08951F9298
:100E40000F920FB60F9211242F933F938F939F937E
:100E5000AF93BF938091E0029091E102A091E202F2
:100E6000B091E3023091DF0223E0230F2D3720F40D
:100E70000196A11DB11D05C026E8230F0296A11DF4
:100E8000B11D2093DF028093E0029093E102A093D2
:100E9000E202B093E3028091E4029091E502A09116
:100EA000E602B091E7020196A11DB11D8093E40214
:100EB0009093E502A093E602B093E702BF91AF9151
:100EC0009F918F913F912F910F900FBE0F901F9088
:100ED00018958F929F92AF92BF92EF92FF920F93CD
:100EE0001F93CF93DF937C01C62F0E9413074B0102
:100EF0005C01F70182A1813059F4CA3610F0C05F5D
:100F000007C0C13210F0C05E03C0C03108F0C85F36
:100F100084B1876084B98DE58CBD81E08DBD60E0D2
:100F2000F701848D0E94BF05CEBD0DB407FC0CC037
:100F30000E941307DC01CB0188199909AA09BB0992
:100F40000A97A105B10588F31EBC0DB407FC0CC0BF
:100F50000E941307DC01CB0188199909AA09BB0972
:100F60000A97A105B10588F31EBC0DB407FC0CC09F
:100F70000E941307DC01CB0188199909AA09BB0952
:100F80000A97A105B10588F31EBC0DB407FC0CC07F
:100F90000E941307DC01CB0188199909AA09BB0932
:100FA0000A97A105B10588F31EBC0DB407FC0CC05F
:100FB0000E941307DC01CB0188199909AA09BB0912
:100FC0000A97A105B10588F361E0F701848D0E94BD
:100FD000BF058BE490E00197F1F760E0F701848DA5
:100FE0000E94BF05CEBD0DB407FC0CC00E941307C4
:100FF000DC01CB0188199909AA09BB094497A1050D
:10100000B10588F38EB51EBC0DB407FC0CC00E9460
:101010001307DC01CB0188199909AA09BB09449778
:10102000A105B10588F31EB51EBC0DB407FC0CC0AC
:101030000E941307DC01CB0188199909AA09BB0991
:101040004497A105B10588F30EB51EBC0DB407FC8D
:101050000CC00E941307DC01CB0188199909AA0969
:10106000BB094497A105B10588F3DEB51EBC0DB4DC
:1010700007FC0CC00E941307DC01CB0188199909F9
:10108000AA09BB094497A105B10588F3CEB561E073
:10109000F701848D0E94BF058CB58F7B8CBD812F9D
:1010A00090E0A0E0B0E0BA2FA92F982F8827800FFA
:1010B000911DA11DB11DBA2FA92F982F88278D0F23
:1010C000911DA11DB11DBA2FA92F982F8827BC01F2
:1010D000CD016C0F711D811D911DDF91CF911F916D
:1010E0000F91FF90EF90BF90AF909F908F900895D9
:1010F0004F925F926F927F928F929F92AF92BF9228
:10110000CF92DF92EF92FF920F931F93CF93DF93D3
:10111000CDB7DEB729970FB6F894DEBF0FBECDBFAF
:101120008C01762E49015A010E9413076B017C0144
:10113000272D2068D80192968C91813071F4B9E600
:10114000B71510F4205F09C0EFE1E71510F4205E39
:1011500004C0FFE0F71508F4285F8B2D9927AA2714
:10116000BB2789839A83AB83BC83250166247724BC
:10117000BB27AB2D9A2D892D8D839E83AF83B88796
:1011800084B1876084B981E58CBD60E0D8015C964C
:101190008C9129870E94BF0529852EBD0DB407FCBF
:1011A0000CC00E941307DC01CB018C199D09AE090C
:1011B000BF090A97A105B10588F3B981BEBD0DB479
:1011C00007FC0CC00E941307DC01CB018C199D09A0
:1011D000AE09BF090A97A105B10588F34EBC0DB44D
:1011E00007FC0CC00E941307DC01CB018C199D0980
:1011F000AE09BF090A97A105B10588F3ED81EEBDDF
:101200000DB407FC0CC00E941307DC01CB018C1944
:101210009D09AE09BF090A97A105B10588F38EBCE7
:101220000DB407FC0CC00E941307DC01CB018C1924
:101230009D09AE09BF090A97A105B10588F361E0D0
:10124000D8015C968C910E94BF058CB58F7B8CBDBC
:1012500061E070E080E090E029960FB6F894DEBF80
:101260000FBECDBFDF91CF911F910F91FF90EF90F7
:10127000DF90CF90BF90AF909F908F907F906F90B6
:101280005F904F9008950F931F93FC01608F718FB3
:1012900020E030E0362F890120E030E06289A901AA
:1012A0009801262B228B338B448B558B60E31F9147
:1012B0000F910C947808CF93DF93EC012DA13EA100
:1012C0004FA158A56CE60E9478082A893B894C8971
:1012D0005D8960E3CE010E94780829A53AA54BA557
:1012E0005CA564E3CE010E9478082DA53EA54FA51C
:1012F00058A960E1CE010E94780829A93AA94BA912
:101300005CA96DE6CE010E9478082DA93EA94FA9DF
:1013100058AD61E3CE010E94780829AD3AAD4BADDE
:101320005CAD62E3CE010E94780820E030E0A901C4
:1013300060E2CE010E94780820E030E0A9016DE271
:10134000CE010E94780820E030E0A90161E2CE01E0
:101350000E94780821E030E040E050E06CE2CE01ED
:101360000E947808FE01EF5AFF4F208131814281AF
:10137000538163E2CE010E947808FE01E75AFF4FD5
:10138000208131814281538164E2CE010E9478083C
:10139000FE01EF59FF4F208131814281538165E287
:1013A000CE010E947808FE01E759FF4F208131816C
:1013B0004281538166E2CE010E947808FE01EB591A
:1013C000FF4F208131814281538167E2CE010E942B
:1013D0007808FE01E359FF4F20813181428153811A
:1013E00068E2CE010E947808FE01E35AFF4F208197
:1013F0003181428153816AE2CE010E947808FE0168
:10140000EB5AFF4F20813181428153816BE2CE0143
:10141000DF91CF910C947808CF92DF92EF92FF92F8
:101420000F931F93FC0105A116A127A130A5007FF2
:10143000E35BFF4FC62ED12CE12CF12CC082D18270
:10144000E282F3826F70A9019801262BFC0125A38B
:1014500036A347A350A76CE61F910F91FF90EF9022
:10146000DF90CF900C947808FC01EB59FF4F40833C
:101470005183628373839A01AB0167E20C9478080D
:10148000CF93DF93EC01ABA1BCA19A01AB010E9409
:1014900095259B01AC016E837F83888799876E8732
:1014A0007F87888B998B6DE2CE010E9478082E8110
:1014B0003F814885598561E2CE01DF91CF910C943F
:1014C0007808CF93DF93EC0161E20E94690761E243
:1014D000CE010E9469076E837F8388879987DF9199
:1014E000CF910895CF92DF92EF92FF920F931F93C7
:1014F000CF938C0165E30E946907F80161837283D1
:101500008383948366FD1BC06B017C01F0E3CF22D3
:10151000F6E0DF22EE24FF24CD28CE28CF2869F480
:1015200060FF0DC0DC01CB0188279E70AA27BB2776
:10153000C1E0892B8A2B8B2B19F0C0E001C0C1E0E0
:10154000C8010E94610A8C2FCF911F910F91FF90CB
:10155000EF90DF90CF900895CF92DF92EF92FF92BD
:10156000CF93DF93EC01ABA1BCA19A01AB010E9428
:1015700095256B017C016E877F87888B998BCE01C7
:101580000E94610AC616D706E806F9061CF081E03B
:10159000888301C018822E853F85488959896DE26C
:1015A000CE01DF91CF91FF90EF90DF90CF900C9420
:1015B0007808CF92DF92EF92FF92CF93DF93EC0106
:1015C0009F8D9F3F19F088A18F3F79F4CE010E9433
:1015D000610A2BA13CA140E050E00E947025BA01B5
:1015E000A901CE010E94AC0A2CC049A55AA56BA541
:1015F0007CA54370552766277727452B462B472B1D
:1016000001F1288161E02111892F0E94BF0565E366
:10161000CE010E94690765E3CE010E946907DC01E3
:10162000CB0180739927AA27BB27892B8A2B8B2B69
:1016300041F06FE6CE010E9469076FE6CE010E947D
:10164000690789A59AA5ABA5BCA5807A9927AA2781
:10165000BB27892B8A2B8B2B31F166E3CE010E94AD
:10166000690766E3CE010E9469076B017C0161E2B4
:10167000CE010E94690761E2CE010E9469076C19E0
:101680007D098E099F096E837F83888799872BA1A7
:101690003CA140E050E00E947025BA01A901CE01B2
:1016A0000E94AC0A17C061E2CE010E94690761E2A4
:1016B000CE010E9469076E837F83888799872BA15B
:1016C0003CA140E050E00E947025BA01A901CE0182
:1016D0000E94400A60E08F8D0E94BF0560E088A1F3
:1016E000DF91CF91FF90EF90DF90CF900C94BF05EA
:1016F000AF92BF92CF92DF92EF92FF920F931F9320
:10170000CF93DF9300D000D0CDB7DEB75C019A0154
:10171000AB0157FD04C081E0F501808302C0FC01EC
:101720001082C50129833A834B835C830E94610A3E
:10173000F501C3A0D4A0E12CF12C29813A814B8181
:101740005C81C701B6010E943E2506811781208574
:101750003185600F711F821F931FA70196010E94A0
:101760007025BA01A901C5010F900F900F900F903D
:10177000DF91CF911F910F91FF90EF90DF90CF906D
:10178000BF90AF900C94AC0A0C943B24009719F4D2
:101790008CE491E022C08230910519F48EEA91E048
:1017A0001CC08130910519F48DE592E016C083309C
:1017B000910519F48EE491E010C08430910519F47C
:1017C0008CEA91E00AC08530910519F48FE592E02A
:1017D00004C00697A9F781E692E00C94E90D0C94F9
:1017E00043240C943B248F929F92AF92BF92EF922E
:1017F000FF920F931F93CF93DF93CDB7DEB7289758
:101800000FB6F894DEBF0FBECDBF7C0109831A83EB
:101810002B833C834D835E836F8378878D809E808E
:10182000AF80B88469817A818B819C810E94512428
:10183000AB01BC01C7010E94340AC501B4010E947A
:1018400051249B0140E050E0F701E759FF4F20830E
:1018500031834283538366E2C7010E94780820E007
:1018600030E040E450E4C501B4010E94A9240E9484
:1018700051249B0140E050E0F701E359FF4F2083E2
:1018800031834283538368E2C70128960FB6F894E8
:10189000DEBF0FBECDBFDF91CF911F910F91FF90A3
:1018A000EF90BF90AF909F908F900C9478084F92DC
:1018B0005F926F927F928F929F92AF92BF92EF92C0
:1018C000FF920F931F93CF93DF93CDB7DEB760974F
:1018D0000FB6F894DEBF0FBECDBF7C01412C80E671
:1018E000582E8AEE682E87E4782E49865A866B86B3
:1018F0007C86812C90E8992E9BE3A92E95E4B92E45
:101900008D869E86AF86B88A00E01A852B853C8539
:1019100040E05E856F857889F701808591850E941A
:10192000F30B49825A826B827C828D829E82AF82C7
:10193000B8861A812B813C8140E05E816F81788579
:10194000F701828593850E94F30B60960FB6F89499
:10195000DEBF0FBECDBFDF91CF911F910F91FF90E2
:10196000EF90BF90AF909F908F907F906F905F901F
:101970004F900895BC01009791F0FC010190002068
:10198000E9F73197AF01481B590BE0913903F0910A
:101990003A030280F381E02D89E393E0099480E02B
:1019A00090E00895CF93DF930E94BA0CEC0180E899
:1019B00092E00E94BA0C8C0F9D1FDF91CF91089589
:1019C0000F931F93CF93DF93EC0160E00E946907B0
:1019D00060E0CE010E9469073AA1385F41E050E023
:1019E000FA0102C0EE0FFF1F3A95E2F79F01209522
:1019F00030958901330F220B330BA901980126235F
:101A000037234823592360E0CE01DF91CF911F9106
:101A10000F910C9478088F929F92AF92BF92EF92A1
:101A2000FF920F931F93CF93DF93CDB7DEB76097ED
:101A30000FB6F894DEBF0FBECDBF80E094E0A6EAFB
:101A4000B8E489839A83AB83BC83812C912C8AEF81
:101A5000A82E85E4B82E8D829E82AF82B88699E842
:101A6000E92E93E0F92E00E01A812B813C8140E0C1
:101A70005E816F817885F701808591850E94F30BE7
:101A800080E09CE8A9E3B8E489879A87AB87BC87A4
:101A90008D869E86AF86B88A1A852B853C8540E068
:101AA0005E856F857889F701828593850E94F30BA7
:101AB00060960FB6F894DEBF0FBECDBFDF91CF9119
:101AC0001F910F91FF90EF90BF90AF909F908F90DC
:101AD00008958F929F92AF92BF92EF92FF920F93D1
:101AE0001F93CF93DF93CDB7DEB760970FB6F8940F
:101AF000DEBF0FBECDBF80E094E0A6EAB8E48983E4
:101B00009A83AB83BC83812C912C8AEFA82E85E429
:101B1000B82E8D829E82AF82B88699E8E92E93E036
:101B2000F92E00E01A812B813C8140E05E816F81BB
:101B30007885F701808591850E94F30B80E090E421
:101B4000ACE1B5E489879A87AB87BC878D869E8692
:101B5000AF86B88A1A852B853C8540E05E856F8507
:101B60007889F701828593850E94F30B60960FB602
:101B7000F894DEBF0FBECDBFDF91CF911F910F91C3
:101B8000FF90EF90BF90AF909F908F9008954091FD
:101B9000090350910A0360910B0370910C0380912B
:101BA0009303909194030C94AC0A4CE95FEF6FEFB0
:101BB0007FEF80919303909194030C94AC0A49EECB
:101BC00050E060E070E080919303909194030C9456
:101BD000AC0A0C94BA0CCF92DF92EF92FF920E9463
:101BE00013076B017C0182E10E942B068D3B924022
:101BF000E0F061E08DE00E94BF0560E08AE10E94B4
:101C0000BF0582E10E942B068D3B924068F10E9445
:101C10001307DC01CB018C199D09AE09BF09813A7C
:101C20009F40A105B10568F31FC060E08DE00E94F0
:101C3000BF0561E08AE10E94BF0582E10E942B0698
:101C40008C3B924088F40E941307DC01CB018C1975
:101C50009D09AE09BF09813A9F40A105B10568F30E
:101C600080EB91E00E94E90D61E08DE00E94BF05EC
:101C700061E08AE1FF90EF90DF90CF900C94BF0578
:101C80007F928F929F92AF92BF92CF92DF92EF920C
:101C9000FF920F931F93CF93DF930E9413076B0163
:101CA0007C0182E10E942B06CC97E0F460E08DE09D
:101CB0000E94BF0561E08AE10E94BF0582E10E94A7
:101CC0002B06CC9708F071C00E941307DC01CB01F2
:101CD0008C199D09AE09BF09813A9F40A105B10544
:101CE00068F363C061E08DE00E94BF0560E08AE1B7
:101CF0000E94BF0582E10E942B06EC01712C812C11
:101D0000912C5401CD33D10508F44FC061E08DE032
:101D10000E94BF0568E070E080E090E00E945606F7
:101D200062E070E080E090E00E94560682E10E944E
:101D30002B068C010E941307DC01CB018C199D0935
:101D4000AE09BF09813A9F40A105B10528F080EB9B
:101D500091E00E94E90D29C09E01201B310BC901B1
:101D600001960397B8F4711007C00E9413074B0146
:101D70005C017724739417C00E941307DC01CB0128
:101D800088199909AA09BB09853F9140A105B105A8
:101D900050F00BC037FF03C0319521953109263033
:101DA00031050CF0712CE801ADCF61E08DE00E94AF
:101DB000BF0561E08AE10E94BF0582E10E942B0617
:101DC0008536910524F081E08093970302C010923C
:101DD0009703DF91CF911F910F91FF90EF90DF90CC
:101DE000CF90BF90AF909F908F907F9008954F922B
:101DF0005F926F927F92AF92BF92CF92DF92EF92FB
:101E0000FF920F931F93CF93DF930E9413072B0131
:101E10003C0182E10E942B0600919E0310919F03DA
:101E2000E80125978C179D07E8F460E08DE00E949B
:101E3000BF0561E08AE10E94BF0582E10E942B0696
:101E40008C179D0708F05DC00E941307DC01CB01D1
:101E500084199509A609B709813A9F40A105B105E2
:101E600060F34FC082E10E942B060B5F1F4F0817E3
:101E7000190708F046C061E08DE00E94BF0560E0F0
:101E80008AE10E94BF0582E10E942B06EC01C12C71
:101E9000D12C76010C171D07A0F582E10E942B06BC
:101EA0005C010E941307DC01CB0184199509A60986
:101EB000B709813A9F40A105B10528F080EB91E078
:101EC0000E94E90D1EC0CA19DB0921962397B8F4B8
:101ED000C114D104E104F10429F40E9413076B0139
:101EE0007C010DC00E941307DC01CB018C199D09F8
:101EF000AE09BF0981399140A105B10510F4E50192
:101F0000C9CF61E08DE00E94BF0561E08AE1DF9109
:101F1000CF911F910F91FF90EF90DF90CF90BF90E6
:101F2000AF907F906F905F904F900C94BF058F9211
:101F30009F92AF92BF920F931F93CF93DF93CDB732
:101F4000DEB7A1970FB6F894DEBF0FBECDBF19A2C2
:101F5000423008F44AE08E010F5D1F4F842E912C11
:101F6000A12CB12CA50194010E944E25E62FB901A8
:101F7000CA0101501109EA3014F4E05D01C0E95CC6
:101F8000D801EC93232B242B252B61F7C8010E9449
:101F9000BA0CA1960FB6F894DEBF0FBECDBFDF918D
:101FA000CF911F910F91BF90AF909F908F90089508
:101FB000E0913903F0913A030190F081E02D682F10
:101FC00089E393E00994CF92DF92EF92FF92CF934F
:101FD000DF936C01990FEE08FF08F7FE12C08DE247
:101FE0000E94D80FEC0166277727CB016C197D0979
:101FF0008E099F094AE00E94970F7C01EC0EFD1E9E
:1020000006C04AE0C701B6010E94970F7C0180E834
:1020100092E00E94BA0C8E0D9F1DDF91CF91FF9030
:10202000EF90DF90CF900895CF92DF92EF92FF92E2
:102030000F931F93CF9389E893E00E94570C88EC8D
:1020400090E00E94F10BC82F89EC90E00E94F10B08
:102050004C2F50E0542F4427052E000C660B770BB5
:10206000480F511D611D711D8AE69FEFAFEFBFEF55
:102070008C019D01041B150B260B370BB901A80120
:1020800080919103909192030E94780B809191032B
:10209000909192030E94610A6B017C0180919103EF
:1020A000909192030E94720A811102C0C0E006C0A2
:1020B00087E10E949605019789F7C1E0809191031D
:1020C000909192030E94D90AC11106C083E892E060
:1020D0000E94E90DC0E001C0C1E0809191039091A0
:1020E00092030E94610AC61AD70AE80AF90AC09246
:1020F0008903D0928A03E0928B03F0928C0340E034
:1021000050E0BA0180919103909192030E94400A9D
:102110000E940B0D8C2FCF911F910F91FF90EF908C
:10212000DF90CF900895CF93DF9385E10E942B0637
:10213000EC0161E086E00E94BF056AE070E080E0AB
:1021400090E00E94560685E10E942B06C81BD90B21
:1021500060E086E00E94BF056AE070E080E090E009
:102160000E9456069E01D7FF02C020E030E081E0C9
:102170002A3F310508F080E0DF91CF910895CF9399
:10218000DF93C9E8D3E060E0888599850E940C0A56
:1021900060E08A859B85DF91CF910C940C0ACF93E8
:1021A000DF93C9E8D3E063E0888599850E940C0A33
:1021B00063E08A859B85DF91CF910C940C0ACF93C5
:1021C000DF9380919103909192030E94720AD82F1D
:1021D000811107C080919303909194030E94720A29
:1021E000C82F89E393E00E94F101892B71F080915F
:1021F0009103909192030E94D90A80919303909148
:1022000094030E94D90A0E94BF10D11102C08C2FE2
:1022100001C081E0DF91CF910895CF92DF92EF92DC
:10222000FF92CF9389E893E00E94570C809191032D
:10223000909192030E94610A6B017C0140EB5CE388
:102240006FEF7FEF80919103909192030E94780B42
:1022500080919103909192030E94720A811102C0B1
:10226000C0E006C087E10E949605019789F7C1E0AA
:1022700080919103909192030E94D90AC11104C0E8
:1022800083E892E00E94E90D0E94DF108111FCCFEB
:1022900080919103909192030E94610AC61AD70A15
:1022A000E80AF90AC0928903D0928A03E0928B036C
:1022B000F0928C0340E050E0BA018091910390913C
:1022C00092030E94400A0E940B0D8C2FCF91FF9029
:1022D000EF90DF90CF900895CF92DF92EF92FF9230
:1022E000CF93DF9380919303909194030E94610AAE
:1022F00060938D0370938E0380938F03909390036C
:1023000086E10E942B06C0E0853691050CF44FC093
:1023100040910C0150910D0160910E0170910F01DF
:1023200080919303909194030E94780B8091930382
:10233000909194030E94720A882331F086E10E94F2
:102340002B068536910594F7C0908D03D0908E03AF
:10235000E0908F03F0909003809193039091940309
:102360000E94610AC61AD70AE80AF90AC0928D03C8
:10237000D0928E03E0928F03F092900340E050E001
:10238000BA0180919303909194030E94400A0E94A5
:10239000DF108111FCCF6AE070E080E090E00E94E5
:1023A000560686E10E942B06CF5FC63111F4D0E0BD
:1023B00041C086E10E942B06A7CFD11129C0C901D7
:1023C0000E94720A882321F186E10E942B06209147
:1023D000930330919403853691057CF3C9010E94E3
:1023E000610AC0908D03D0908E03E0908F03F0902F
:1023F0009003A7019601261B370B480B590B20931E
:102400008D0330938E0340938F0350939003D1E05C
:1024100040E050E0BA0180919303909194030E94B0
:10242000400AC531E8F486E10E942B06CF5F85366D
:102430009105B4F440910C0150910D0160910E0191
:1024400070910F0170956095509541955F4F6F4F5A
:102450007F4F80919303909194030E94780BB4CFA7
:102460008D2FDF91CF91FF90EF90DF90CF90089567
:102470000E946C110E94D50D80919303909194035A
:102480000E94720A8111F8CF10929D0310929C0352
:1024900080E090E00895CF92DF92EF92FF92CF9389
:1024A000DF936C01990FEE08FF08F7FE17C08DE26D
:1024B0000E94D80FEC0166277727CB016C197D09A4
:1024C0008E099F094AE00E94970F8C0F9D1FDF9194
:1024D000CF91FF90EF90DF90CF9008954AE0C70131
:1024E000B601DF91CF91FF90EF90DF90CF900C94E9
:1024F000970F0F931F93CF93DF93EC018B010E94F3
:102500000B0D0E949310882309F4F1C0C930D10546
:1025100079F40930110561F44091210350912203AF
:10252000609123037091240381E08093960319C086
:1025300020913103309132034091330350913403A1
:10254000D8010E94A02500913503109136032091F7
:10255000370330913803AB01BC01400F511F621F9C
:10256000731F80919103909192030E94AC0A299766
:1025700071F44091F9025091FA026091FB0270915E
:10258000FC0280919303909194030E94AC0A0E94F4
:10259000EB0D0E94DF108111FCCF40910D03509193
:1025A0000E0360910F03709110038091930390913B
:1025B00094030E94AC0A0E94DF108111FCCF0E949C
:1025C000F70E48E35FEF6FEF7FEF809193039091F9
:1025D00094030E94780B0E94DF10882351F00E9420
:1025E00093108823C1F380919303909194030E94E8
:1025F000D90A0E9493102091930330919403882369
:1026000019F140E75EEF6FEF7FEFC9010E94780B91
:102610000E94DF108111FCCF0E949310811105C030
:102620000E94400EC7E0D0E025C048EC50E060E0DA
:1026300070E080919303909194030E94780B0E9424
:10264000DF108111FCCFECCF48E35FEF6FEF7FEF3E
:10265000C9010E94780B0E94DF108111FCCF0E94FB
:102660009310882319F0C6E0D0E002C0C7E0D0E0A4
:102670000E94EB0D0E940B0D0E946C11182FC630AA
:10268000D10559F00E949310882329F00E949310DD
:10269000C0E0D0E002C0C2E0D0E060918D03709154
:1026A0008E0380918F039091900320E430E040E00E
:1026B00050E00E94702580910D0390910E03A0912F
:1026C0000F03B09110038C529C4FAF4FBF4F821736
:1026D0009307A407B50734F40E949310811102C038
:1026E000C5E0D0E0111105C0C4E0D0E002C0C7E0F1
:1026F000D0E010929603CE01DF91CF911F910F9100
:102700000895FC018091A503811103C08FEF9FEF15
:1027100008959FB7F89482E08093E9002091F20039
:1027200030E01216130614F421E030E021153105D3
:1027300051F084E68093A4038091F100808380911E
:10274000F200882319F09FBFC90108958BE680939A
:10275000E800F9CF2FB7F89483E08093E9009091D7
:10276000E800892F807295FF04C09091F20080E408
:10277000891B2FBF08958091AA0381110DC082E0AB
:102780008093A60384E08093A7031092A90310927C
:10279000A80381E08093AA0386EA93E00895CF938B
:1027A000DF9300D000D0CDB7DEB7789484B58260D7
:1027B00084BD84B5816084BD85B5826085BD85B5E5
:1027C000816085BD80916E00816080936E00109263
:1027D00081008091810082608093810080918100DE
:1027E000816080938100809180008160809380006F
:1027F000809191008260809391008091910081602E
:1028000080939100809190008160809390008091EE
:10281000C10084608093C1008091C1008260809378
:10282000C1008091C10081608093C1008091C3008C
:1028300081608093C3008091C00082608093C0005B
:102840008091C20081608093C20080917A00846090
:1028500080937A0080917A00826080937A008091E0
:102860007A00816080937A0080917A0080688093FA
:102870007A001092A5031092DE021092DD02809180
:10288000D70081608093D70080EA8093D80089B513
:10289000806189BD89B5826089BD09B400FEFDCF24
:1028A00061E070E080E090E00E9456068091D800E0
:1028B0008F7C80618093D8008091E000807F80933E
:1028C000E0008091E1008E7E8093E1008DE08093B6
:1028D000E200EEEFFFE7859194918B3F9C4D19F458
:1028E00081E08093DC0261E081E10E94EF0560E01D
:1028F00081E10E94BF0561E087E00E94EF058FEF54
:102900009FEF909346038093450386E190E00E94F9
:10291000C40B8F3F29F467E486E190E00E944324D2
:1029200086E190E00E94C40B8734A9F089E393E02C
:102930000E94F101892BD1F383E391E00E94E90D1C
:1029400086E190E00E94C40B0E94D80F89E393E0D7
:102950000E94CD02EBCF62E087E10E94EF0562E0CA
:1029600086E10E94EF0562E085E10E94EF0562E0EA
:1029700084E10E94EF0560E082E10E94EF0561E0E2
:102980008AE10E94EF0561E08DE00E94EF0561E0C1
:102990008AE10E94EF0561E08DE00E94EF0561E0B1
:1029A00089E00E94EF0561E089E00E94BF0560E0D8
:1029B0008AE10E94BF0560E08DE00E94BF0560E0F3
:1029C0008AE10E94BF0560E08DE00E94BF0560E0E3
:1029D00082E10E94EF0561E08CE00E94EF0560E07B
:1029E0008CE00E94BF0561E086E00E94EF0560E098
:1029F00086E00E94BF05B2E08B2E912CA12CB12C59
:102A000089E393E00E94F101892B09F4B4C789E3BB
:102A100093E00E94CD02182F883529F40E94BF1040
:102A200060E081E171C68F3329F48EE491E00E9469
:102A3000E90DA1C7813209F0A5C261E087E00E94DB
:102A4000BF0560E081E10E94BF0568EC70E080E0B6
:102A500090E00E94560661E081E10E94BF0568ECAB
:102A600070E080E090E00E94560680919103909182
:102A7000920311E0FC0112A30E945B098091930371
:102A800090919403FC0112A20E945B09E0909103D3
:102A9000F090920388E1F701878F61E00E94EF05D3
:102AA00060E0F701878D0E94BF05E0909103F090F0
:102AB0009203F70110A361E081E00E94EF0560E05E
:102AC000F70180A10E94BF05009193031091940328
:102AD000F801178E82E080A361E00E94EF0560E0BC
:102AE000F80180A10E94BF0500919103109192030B
:102AF00080E490E0F80194A383A3E0919303F09124
:102B0000940394A383A3ABE0FA2EF801F48E61E062
:102B10008BE00E94EF0561E0F801848D0E94BF0503
:102B200080919103909192030E94E00C8091910317
:102B300090919203FC01E759FF4F20E737E140E015
:102B400050E0208331834283538366E20E947808F9
:102B50008091910390919203FC01E359FF4F20E78C
:102B600037E140E050E0208331834283538368E2C1
:102B70000E94780840EA56E861E070E08091910395
:102B8000909192030E94340A809191039091920354
:102B9000FC01EF5AFF4F21E030E040E050E020839D
:102BA00031834283538363E20E94780880919103CA
:102BB00090919203FC01EB5AFF4F80829182A28296
:102BC000B38222E030E040E050E06BE20E947808FF
:102BD0008091910390919203FC01E35BFF4F408150
:102BE0005181628173814F705527662777279A013B
:102BF000AB0120634160FC0125A336A347A350A786
:102C00006CE60E947808809191039091920323E0F2
:102C100030E040E050E0FC0121A732A743A754A7D1
:102C200064E30E947808809191039091920320EFD1
:102C300034E044E050E0FC0125A736A747A750AB9D
:102C400060E10E94780863E0809191039091920383
:102C50000E940C0A809193039091940320EE32E23B
:102C600042E050E0FC0121AF32AF43AF54AF62E32A
:102C70000E947808809193039091940320E23EE4AF
:102C800040E050E0FC0125AB36AB47AB50AF61E311
:102C90000E9478080091930310919403F801F48E38
:102CA00061E08BE00E94EF0561E0F801848D0E94F5
:102CB000BF0580919303909194030E94E00C809152
:102CC000930390919403FC01E759FF4F20E83EE302
:102CD00040E050E0208331834283538366E20E94C8
:102CE00078088091930390919403FC01E359FF4F7E
:102CF00020E83EE340E050E0208331834283538369
:102D000068E20E94780840EA56E861E070E080914D
:102D10009303909194030E94340A809193039091BD
:102D20009403FC01EF5AFF4F21E030E040E050E017
:102D3000208331834283538363E20E947808809129
:102D4000930390919403FC01EB5AFF4F8082918290
:102D5000A282B38222E030E040E050E06BE20E94C9
:102D600078088091930390919403FC01E35BFF4FFB
:102D700040815181628173814F7055276627772783
:102D80009A01AB0120634160FC0125A336A347A350
:102D900050A76CE60E947808809193039091940369
:102DA00020E030E04DE050E0FC0121AB32AB43AB22
:102DB00054AB6DE60E947808809193039091940340
:102DC00023EA30E040E050E0FC0121A732A743A70E
:102DD00054A764E30E947808809193039091940330
:102DE00020EF34E044E050E0FC0125A736A747A7D8
:102DF00050AB60E10E94780863E08091930390916A
:102E000094030E940C0A809193039091940340E2F2
:102E10005FEB62E070E0FC0141AF52AF63AF74AFB3
:102E200020E23FEB42E050E062E30E9478088091AC
:102E300093039091940320E23EE440E050E0FC01D3
:102E400025AB36AB47AB50AF61E30E94780868E131
:102E500070E080919103909192030E944309E09168
:102E60009103F091920384E090E0978B868B8289A6
:102E70009389A489B58988279C01AD012460228BA0
:102E8000338B448B558B60E3CF010E947808E0912F
:102E90009103F091920301E010E0178B068B828979
:102EA0009389A489B5899C01AD014427228B338B7A
:102EB000448B558B60E3CF010E9478086DE070E091
:102EC00080919303909194030E944309E0919303AE
:102ED000F091940386E090E0978B868B82899389AA
:102EE000A489B58988279C01AD012660228B338B8C
:102EF000448B558B60E3CF010E947808E0919303E7
:102F0000F0919403178B068B82899389A489B589E4
:102F10009C01AD014427228B338B448B558B60E39E
:102F2000CF010E94780880919103909192030E94B2
:102F30005B0980919303909194030E945B0960E088
:102F400087E00E94BF0589E893E00E94570C0E9429
:102F50006C11882391F00E94D50D8091930390917C
:102F600094030E94720A8111F8CF0E940D118823E8
:102F700009F45BCD0E946C1158CD80E591E00E9470
:102F8000E90D53CD89E393E00E94F101892B19F4F7
:102F90008BE691E04CCD89E393E00E94F10101972B
:102FA00009F0C6C389E393E00E94CD02082F89E3AC
:102FB00093E00E94F101892B79F089E891E00E9469
:102FC000E90D89E393E00E94CD020E944B128AEA48
:102FD00091E00E94E90DEBCF103309F05AC00E9436
:102FE0006C11409121035091220360912303709151
:102FF000240380919103909192030E94AC0A0E9455
:10300000DF108111FCCF8091930390919403FC0118
:10301000E759FF4F20E137E240E050E02083318361
:103020004283538366E20E94780840EF57E365E0ED
:1030300070E080919303909194030E94340A409130
:103040000103509102036091030370910403809186
:103050009303909194030E94AC0A0E94DF108111A7
:10306000FCCF0E94EB0D0E940B0D0E94C70D0E9429
:10307000DF10882339F086E10E9496050197B9F7A1
:103080000E946C110E9493100E94F70E0E946C1116
:10309000E4C2113469F48FEC800F833008F045C32B
:1030A000602F000F770B6153710980E090E0A1C0A1
:1030B000123409F080C2023439F40E949310811155
:1030C000E9C28EEA91E0B3CC033409F08CC04CE243
:1030D00051E060E070E080919303909194030E942E
:1030E000AC0A0E94DF108111FCCF40911503509172
:1030F00016036091170370911803809191039091CA
:1031000092030E94AC0A0E94DF108111FCCF0E9442
:10311000C70D4091290350912A0360912B037091B0
:103120002C0380919103909192030E94AC0A0E941B
:10313000DF108111FCCF4091110350911203609177
:1031400013037091140380919303909194030E9450
:10315000AC0A0E94DF108111FCCF84E10E942B0693
:103160008C0161E08CE00E94BF0564E170E080E0CA
:1031700090E00E94560684E10E942B06081B190B62
:10318000093E33E0130710F000E010E060E08CE04F
:103190000E94BF050536110518F003E010E002C0DB
:1031A00000E010E00E94D50D80919303909194036C
:1031B0000E94720A8111F8CF10929D0310929C0315
:1031C0000E949310811102C002E010E00115110568
:1031D00011F483E552C20330110519F483E090E045
:1031E00041C28EE44AC2023539F469E070E089E0F8
:1031F00090E00E94791236C2043509F046C00E9460
:1032000038120E941410882309F42AC24091250321
:1032100050912603609127037091280380919103B8
:10322000909192030E94AC0A0E94DF108111FCCFA2
:1032300068E170E080919303909194030E944309A8
:1032400089E893E00E94570C4091F5025091F602F4
:103250006091F7027091F80280919303909194032A
:103260000E94AC0A80919303909194030E94720A89
:103270008111F8CF0E940B0D6BE070E080919303F9
:10328000909194030E94430984C00535B9F40E94CB
:10329000690D4091F1025091F2026091F302709138
:1032A000F40280919303909194030E94AC0A0E94CF
:1032B000DF108111FCCF0E940B0DCFC10D3409F03E
:1032C0006BC080919C0390919D0383309105E9F43C
:1032D0000E943812409125035091260360912703E4
:1032E0007091280380919103909192030E94AC0AFF
:1032F00080919103909192030E94720A8111F8CFFC
:103300000E940B0D0E94141008C0029731F40E9415
:10331000DF0D0E94DF108111FCCF409125035091F9
:103320002603609127037091280380919103909167
:1033300092030E94AC0A80919103909192030E94A3
:10334000720A8111F8CF0E94141040912503509108
:103350002603609127037091280380919103909137
:1033600092030E94AC0A0E94DF108111FCCF4091B1
:10337000F1025091F2026091F3027091F402809197
:103380009303909194030E94AC0A0E94DF10811174
:10339000FCCF81E090E004C10434A9F40E94690DDF
:1033A0004091F5025091F6026091F7027091F80297
:1033B00080919303909194030E94AC0A0E94DF10C5
:1033C0008111FCCF78CF063421F580919C03909138
:1033D0009D03039719F40E94D50D02C00E94DF0DD2
:1033E0000E94DF108111FCCF40911D0350911E03FC
:1033F00060911F037091200380919103909192033B
:103400000E94AC0A0E94DF108111FCCF82E090E0A4
:10341000C7C0003509F0C9C080919C0390919D03FD
:10342000892B89F54091190350911A0360911B0370
:1034300070911C0349835A836B837C830E94D50D52
:1034400049815A816B817C81809191039091920393
:103450000E94AC0A0E9413072B013C0182E10E94EA
:103460002B0620919E0330919F032253310982172E
:10347000930758F560E08DE00E94BF0561E08AE1A6
:103480000E94BF0515C00E94DF0D0E94DF10811150
:10349000FCCFC8CF0E941307DC01CB01841995092A
:1034A000A609B709813A9F40A105B10508F05CC0A3
:1034B00082E10E942B0620919E0330919F032253AC
:1034C00031098217930730F34FC061E08DE00E940D
:1034D000BF0560E08AE10E94BF0582E10E942B06E1
:1034E0001C01C12CD12C760180919E0390919F03E9
:1034F000C29782159305C0F582E10E942B068C01CC
:103500000E941307DC01CB0184199509A609B709AC
:10351000813A9F40A105B10528F080EB91E00E941F
:10352000E90D22C0201A310A8FEF281A380AE3E089
:103530002E163104B8F4C114D104E104F10429F4C5
:103540000E9413076B017C010DC00E941307DC0170
:10355000CB018C199D09AE09BF0981329340A105A9
:10356000B10510F41801C0CF61E08DE00E94BF05E5
:1035700061E08AE10E94BF050E94DF108111FCCF4B
:1035800040E253E060E070E08091930390919403F7
:103590000E94AC0A0E94DF108111FCCF83E090E012
:1035A00090939D0380939C0358C00E3409F0BDC0D6
:1035B0000E94381257C0163409F4E5C1173409F4D3
:1035C00075C2143509F0A3C08FEC800F833008F06A
:1035D000D0C20E949310811143C00E940B0D0E9423
:1035E000C70DA02F000FBB0BD19720913103309155
:1035F000320340913303509134030E94A02500917F
:103600003503109136032091370330913803AB0115
:10361000BC01400F511F621F731F80919103909155
:1036200092030E94AC0A0E94F70E0E94DF108111E3
:10363000FCCF0E946C1140910D0350910E036091DC
:103640000F037091100380919303909194030E9453
:10365000AC0A0E94DF108111FCCF80E090E002C034
:1036600087E090E00E94C60B86C1043549F00F3414
:1036700009F074C20E94EB0D8BE40E94D80F7BC14D
:103680000E949310811106C089E393E00E94F1012A
:10369000892BB1F38CE491E0CAC90834D9F70E94B0
:1036A000400E60E08DE00E94BF0560E08AE10E946C
:1036B000BF0568EE73E080E090E00E94560682E16C
:1036C0000E942B068C01005B1F4FB80117FF02C040
:1036D0006F5F7F4F759567958AE090E00E94EF0BD2
:1036E00010939F0300939E03C8010E94E30F053FC0
:1036F000114024F08EE092E00E94D20C61E08DE057
:103700000E94BF0561E08AE10E94BF05C3CF143467
:1037100009F482C2153409F485C2113509F488C24E
:10372000133409F490C21E37D1F08AE292E07FC9C7
:1037300089E393E00E94F10102970CF41CC18DE330
:1037400092E00E94E90D89E393E00E94F101892B48
:1037500009F411C189E393E00E94CD02F4CF0E3742
:1037600021F784E690E00E94C40B182F85E690E0D4
:103770000E94C40B212F30E0322F2227A901480FCD
:10378000511DCA010E94E30F88E690E00E94C40B1D
:10379000182F89E690E00E94C40B212F30E0322FD1
:1037A0002227F901E80FF11DCF010E94E30F86E9FE
:1037B00090E00E94C40B182F87E990E00E94C40B90
:1037C000212F30E0322F2227A901480F511DCA01B5
:1037D0000E94E30F8AE990E00E94C40B182F8BE946
:1037E00090E00E94C40B212F30E0322F2227F901F4
:1037F000E80FF11DCF010E94E30F88EC90E00E94DA
:10380000C40B182F89EC90E00E94C40B212F30E0EC
:10381000322F2227A901480F511DCA010E94E30F30
:103820008CEC90E00E94C40B182F8DEC90E00E946D
:10383000C40B212F30E0322F2227F901E80FF11DB0
:10384000CF010E94E30F8CE291E00E94C40B182F7D
:103850008DE291E00E94C40B212F30E0322F22270D
:10386000A901480F511DCA010E94E30F80E391E0B6
:103870000E94C40B182F81E391E00E94C40B212FFA
:1038800030E0322F2227F901E80FF11DCF010E940D
:10389000E30F80E991E00E94C40B182F81E991E0C9
:1038A0000E94C40B212F30E0322F2227A901480F9C
:1038B000511DCA010E94E30F84E991E00E94C40BEC
:1038C000182F85E991E00E94C40B212F30E0322FA0
:1038D0002227F901E80FF11DCF010E94E30F8AE9C9
:1038E00091E00E94C40B182F8BE991E00E94C40B59
:1038F000212F30E0322F2227A901480F511DCA0184
:103900000E94E30F8EE991E00E94C40B182F8FE90B
:1039100091E00E94C40B212F30E0322F2227F901C1
:10392000E80FF11DCF010E94E30F84EA91E00E94AD
:10393000C40B182F85EA91E00E94C40B212F30E0C0
:10394000322F2227A901480F511DCA010E94E30FFF
:1039500088EA91E00E94C40B182F89EA91E00E9446
:10396000C40B212F30E0322F2227F901E80FF11D7F
:10397000CF010E94E30F80E090E0892B09F440C85A
:103980000E9400003DC8033409F0CFCEC0902D0343
:10399000D0902E03E0902F03F0903003B701A601E2
:1039A00080919103909192030E94AC0A46E051E30A
:1039B00060E070E080919303909194030E94340A38
:1039C0004CE251E060E070E08091930390919403A9
:1039D0000E94AC0A80919103909192030E94720A16
:1039E0008111F8CF0E940B0D0E946C110E941410DF
:1039F000882309F454C0B701A601809191039091E6
:103A000092030E94AC0A80919103909192030E94CC
:103A1000720A8111F8CF89E893E00E94570C6FE198
:103A200070E080919303909194030E9443090E9457
:103A3000C70D80919303909194030E94720A8111A3
:103A4000F8CF48E250E060E070E0809191039091FF
:103A500092030E94780B46E051E360E070E08091B1
:103A60009303909194030E94340A48ED5FEF6FEF47
:103A70007FEF80919303909194030E94780B0E94B2
:103A8000DF108111FCCF6BE070E080919303909187
:103A900094030E9443090E940B0D0E946C110E9426
:103AA00093108111DACD82E090E0DCCD073409F08B
:103AB000DCCD0E94D50D0E94DF108111FCCF40911A
:103AC000290350912A0360912B0370912C0380915C
:103AD0009103909192030E94AC0A0E94DF10811121
:103AE000FCCF0E949310811103C002E010E002C0DD
:103AF00007E010E04091FD025091FE026091FF024C
:103B00007091000380919303909194030E94AC0AFA
:103B10000E94DF108111FCCF0E94EB0D4091110338
:103B200050911203609113037091140380919303D9
:103B3000909194030E94AC0A0E946C110E94931011
:103B4000811106C00730110539F400E010E004C00F
:103B500088EB91E00E94E90DC80184CD033419F48B
:103B60000E94400E89CD023409F0DFCD0E94F70E8D
:103B700083CD87ED91E00E94E90D87E10E949605D3
:103B80000E94E30F80EE91E00E94E90D86E10E9421
:103B900096050E94E30F89EE91E00E94E90D61E035
:103BA0008CE00E94BF0564E170E080E090E00E943C
:103BB00056060E94931090E00E94E30F83EF91E07D
:103BC0000E94E90D84E10E942B060E94E30F60E051
:103BD0008CE00E94BF056AE070E080E090E00E9407
:103BE000560683EF91E00E94E90D84E10E942B06C6
:103BF0000E94E30F83E092E00E94E90D82E10E94BF
:103C00002B060E94E30F60E08CE00E94BF0560E09D
:103C100086E00E94BF0530CD053409F086CD0E94B4
:103C2000BF1038CD053409F080CD0E94CF1032CDC1
:103C3000083519F40E940D112DCD0A3509F02ACD51
:103C40000E946C1127CD0E94CF10013409F067C08B
:103C50000E94CF100E94EB0D40E054E660E070E05F
:103C600080919303909194030E94340A40EE5CEF9C
:103C70006FEF7FEF80919303909194030E94780BF4
:103C80000E94DF108823C1F00E9493108823C1F3A3
:103C900080919303909194030E94610A20E430E0A4
:103CA00040E050E00E947025BA01A9018091930381
:103CB000909194030E94AC0A0E94DF108111FCCF06
:103CC00068EE73E080E090E00E94560689E893E099
:103CD0000E94570C84E690E00E94672380918D0338
:103CE00090918E03A0918F03B0919003409189032E
:103CF00050918A0360918B0370918C03409335033C
:103D000050933603609337037093380380930D0309
:103D100090930E03A0930F03B0931003BBCC033416
:103D200071F586E990E00E94672380918903909164
:103D30008A03A0918B03B0918C034091350350917D
:103D400036036091370370913803841B950BA60BE3
:103D5000B70BB7FF07C0B095A095909581959F4F81
:103D6000AF4FBF4FB595A795979587958093310332
:103D700090933203A0933303B09334038BCC063477
:103D800089F588EC90E00E94672380918D039091E3
:103D90008E03A0918F03B0919003409189035091BD
:103DA0008A0360918B0370918C0340932D03509391
:103DB0002E0360932F037093300380930903909335
:103DC0000A03A0930B03B0930C0386569D4FAF4F8D
:103DD000BF4F8093050390930603A0930703B0930E
:103DE000080358CC0434D9F58CE291E00E94672393
:103DF00080918D0390918E03A0918F03B0919003D9
:103E00004091890350918A0360918B0370918C03D8
:103E10004093210350932203609323037093240360
:103E20008093010390930203A0930303B0930403D0
:103E3000AC01BD0146565D4F6F4F7F4F4093F90275
:103E40005093FA026093FB027093FC0280930C0182
:103E500090930D01A0930E01B0930F011BCC07347A
:103E600029F580E991E00E94672380918D0390916C
:103E70008E03A0918F03B0919003409189035091DC
:103E80008A0360918B0370918C03409329035093B4
:103E90002A0360932B0370932C038093FD0290936D
:103EA000FE02A093FF02B0930003F4CB023509F4A5
:103EB000F1CB043529F58AE991E00E9467238091CE
:103EC0008D0390918E03A0918F03B0919003409148
:103ED000890350918A0360918B0370918C03409306
:103EE0002503509326036093270370932803809340
:103EF000F5029093F602A093F702B093F802CACBB2
:103F00000E3409F0CACB84EA91E00E9467238091C5
:103F10008D0390918E03A0918F03B09190034091F7
:103F2000890350918A0360918B0370918C034093B5
:103F30001D0350931E0360931F037093200380930F
:103F4000ED029093EE02A093EF02B093F002A2CBA9
:103F50000C943B244F925F926F927F928F929F922C
:103F6000AF92BF92CF92DF92EF92FF920F931F9387
:103F7000CF93DF9300D000D0CDB7DEB710923C03D3
:103F800010923B0388EE93E0A0E0B0E080933D0305
:103F900090933E03A0933F03B093400385E291E0EA
:103FA00090933A03809339038FEF9FEF90934603EA
:103FB0008093450384E690E00E94A81FC82E85E602
:103FC00090E00E94A81FD12CDC2CCC240D2C000CDE
:103FD000EE08FF08C80ED11CE11CF11CC09235038D
:103FE000D0923603E0923703F092380386E990E0EE
:103FF0000E94A81FB82E87E990E00E94A81F4B2DB1
:1040000050E0542F4427052E000C660B770B8A01D5
:104010009B01080F111D211D311DC901B8016C192B
:104020007D098E099F0962307105810591053CF07B
:10403000DC01CB01B595A795979587950DC022E03A
:1040400030E040E050E00E94702588279927DC018D
:10405000821B930BA40BB50B809331039093320317
:10406000A0933303B093340388EC90E00E94A81F20
:10407000F82E89EC90E00E94A81F4F2D50E0542F9D
:104080004427052E000C660B770B480F511D611D50
:10409000711D40932D0350932E0360932F03709353
:1040A000300380E991E00E94A81FF82E81E991E099
:1040B0000E94A81F4F2D50E0542F4427052E000CBE
:1040C000660B770B480F511D611D711D409329032D
:1040D00050932A0360932B0370932C038AE991E099
:1040E0000E94A81FC82E8BE991E00E94A81FD12C26
:1040F000DC2CCC240D2C000CEE08FF08C80ED11CC3
:10410000E11CF11CC0922503D0922603E092270304
:10411000F0922803C0922103D0922203E09223035D
:10412000F092240384EA91E00E94A81FB82E85EA49
:1041300091E00E94A81F4B2D50E0542F4427052EDC
:10414000000C660B770B480F511D611D711D4093CC
:104150001D0350931E0360931F0370932003D70128
:10416000C6018A52994FAF4FBF4F80931903909366
:104170001A03A0931B03B0931C031BE0C10E1CE0A9
:10418000D11EE11CF11CC0921503D0921603E092DF
:104190001703F092180384E991E00E94A81FF82EFB
:1041A00085E991E00E94A81F4F2D50E0542F44272D
:1041B000052E000C660B770B480F511D611D711DFC
:1041C00040931103509312036093130370931403ED
:1041D00088E690E00E94A81FF82E89E690E00E94F1
:1041E000A81F4F2D50E0542F4427052E000C660BBE
:1041F000770B480F511D611D711D40930D035093A6
:104200000E0360930F03709310038CEC90E00E94F8
:10421000A81FF82E8DEC90E00E94A81F4F2D50E0B3
:10422000542F4427052E000C660B770B8A019B0147
:10423000080F111D211D311DD901C801009309036B
:1042400010930A0320930B0330930C0386569D4F63
:10425000AF4FBF4F8093050390930603A0930703CE
:10426000B093080380E391E00E94A81FC82E81E369
:1042700091E00E94A81FD12CDC2CCC240D2C000C2A
:10428000EE08FF08C80ED11CE11CF11CC09201030E
:10429000D0920203E0920303F092040384E991E0D8
:1042A0000E94A81FB82E85E991E00E94A81F4B2DFF
:1042B00050E0542F4427052E000C660B770B480F57
:1042C000511D611D711D46505A406109710940938D
:1042D000FD025093FE026093FF0270930003D7012A
:1042E000C60186569D4FAF4FBF4F8093F902909302
:1042F000FA02A093FB02B093FC021CEDC10E15E084
:10430000D11EE11CF11CC092A003D092A103E09247
:10431000A203F092A3038EE991E00E94A81FF82E59
:104320008FE991E00E94A81F4F2D50E0542F4427A1
:10433000052E000C660B770B8A019B01080F111DDF
:10434000211D311DD901C8010093F5021093F60219
:104350002093F7023093F8028897A109B10980935E
:10436000F1029093F202A093F302B093F40288EA70
:1043700091E00E94A81FF82E89EA91E00E94A81FF0
:104380004F2D50E0542F4427052E000C660B770B61
:10439000480F511D611D711D4093ED025093EE02B7
:1043A0006093EF027093F00281E790E00E94B725DE
:1043B000DC01D5961D921D921D921C92D897D9961C
:1043C0001D921D921D921C92DC97FC01FD9610829D
:1043D0001182128213827496C12CD12C7601C3945F
:1043E000C082D182E282F3823496C082D182E2829C
:1043F000F38234964AE0442E512C612C712C408279
:1044000051826282738234964082518262827382C8
:1044100034961082118212821382389658EE852EBD
:1044200053E0952EA12CB12C80829182A282B3827E
:10443000349680829182A282B38216961D921D923A
:104440001D921C9219971E961D921D921D921C92F0
:1044500051973897C082D182E282F38242E058E0DD
:1044600061E070E052964D935D936D937C93559708
:104470001FEF5F961C935F9790961C9390975C96A6
:104480008C915C9790E0FC01EE54FE4FE491FC01AE
:10449000EC56FE4FE4911C92B0939203A0939103CB
:1044A00081E790E049835A836B837C830E94B72520
:1044B000DC01D5961D921D921D921C92D897D9961B
:1044C0001D921D921D921C92DC97FC01FD9610829C
:1044D0001182128213827496C082D182E282F382A8
:1044E0003496C082D182E282F38234964082518235
:1044F00062827382349640825182628273823496E1
:104500001082118212821382389680829182A28256
:10451000B382349680829182A282B38216961D92D3
:104520001D921D921C9219971E961D921D921D920E
:104530001C9251973897C082D182E282F3824981DE
:104540005A816B817C8152964D935D936D937C93E0
:1045500055975F961C935F9790961C9390975C96E7
:104560008C915C9790E0FC01EE54FE4FE491FC01CD
:10457000EC56FE4FE4911C92B0939403A0939303E6
:1045800089E893E00E94570C84E690E00E94F10BCA
:104590008F3F09F07CC083E692E00E94D20C6DE070
:1045A00084E690E00E94EF0B60E485E690E00E94D4
:1045B000EF0B66E186E990E00E94EF0B6FE787E979
:1045C00090E00E94EF0B60E088EC90E00E94EF0B1F
:1045D00060E089EC90E00E94EF0B6CEF8CEC90E0D7
:1045E0000E94EF0B60EF8DEC90E00E94EF0B60E01B
:1045F0008CE291E00E94EF0B6FE08DE291E00E946F
:10460000EF0B6EEE80E391E00E94EF0B61EC81E333
:1046100091E00E94EF0B65EF80E991E00E94EF0BC3
:1046200064E081E991E00E94EF0B67EF84E991E09B
:104630000E94EF0B65EF85E991E00E94EF0B60E0CF
:104640008AE991E00E94EF0B60E08BE991E00E9423
:10465000EF0B61E08EE991E00E94EF0B61EC8FE9D6
:1046600091E00E94EF0B62E084EA91E00E94EF0B80
:104670006FE685EA91E00E94EF0B60E088EA91E046
:104680000E94EF0B68EE89EA91E00E94EF0B8AE04E
:1046900090E00E94F10B90E0880F991F90939F0388
:1046A00080939E030F900F900F900F90DF91CF910A
:1046B0001F910F91FF90EF90DF90CF90BF90AF9040
:1046C0009F908F907F906F905F904F900895EF92A2
:1046D000FF920F931F93CF93DF93EC010E94CF10B3
:1046E00089E893E00E94570C0E946C110E94D50D3E
:1046F00080919303909194030E94720A8111F8CFE4
:104700000E940D118EE992E00E94E90DC436D10598
:1047100019F485EB92E027C0C639D10519F48AEB6C
:1047200092E021C0C83CD10519F48FEB92E01BC088
:10473000CC3241E0D40719F484EC92E014C0C039C3
:1047400051E0D50719F489EC92E00DC0CA3981E037
:10475000D80719F48EEC92E006C0C43A41E0D407C1
:1047600021F483ED92E00E94D20C80918903909114
:104770008A03A0918B03B0918C0326E0B595A79591
:10478000979587952A95D1F78093890390938A030B
:10479000A0938B03B0938C0300918D0310918E0333
:1047A00020918F033091900346E03595279517951A
:1047B00007954A95D1F700938D0310938E032093AC
:1047C0008F0330939003692F7A2F8B2F992787FDC2
:1047D0009A95CE010E94EF0B7E015FEFE51AF50A74
:1047E00060918903C7010E94EF0BCE010E94F10B7B
:1047F000182FC7010E94F10B212F30E0322F222702
:10480000A901480F511DCA010E944B1288ED92E088
:104810000E94E90D8E010C5F1F4F80918D039091D6
:104820008E03A0918F03B0919003692F7A2F8B2F65
:10483000992787FD9A95C8010E94EF0B25966091F4
:104840008D03CE010E94EF0BC8010E94F10B182FBF
:10485000CE010E94F10B212F30E0322F2227A90137
:10486000480F511DCA01DF91CF911F910F91FF9009
:10487000EF900C94E30FF999FECF92BD81BDF89AA9
:10488000992780B50895262FF999FECF1FBA92BDBA
:1048900081BD20BD0FB6F894FA9AF99A0FBE019621
:1048A00008950E94882488F09F5798F0B92F99277F
:1048B000B751B0F0E1F0660F771F881F991F1AF00B
:1048C000BA95C9F714C0B13091F00E94A224B1E0AA
:1048D00008950C94A224672F782F8827B85F39F0A9
:1048E000B93FCCF3869577956795B395D9F73EF4A4
:1048F00090958095709561957F4F8F4F9F4F08954C
:1049000057FD9058440F551F59F05F3F71F0479580
:10491000880F97FB991F61F09F3F79F08795089565
:10492000121613061406551FF2CF4695F1DF08C084
:10493000161617061806991FF1CF869571056105A1
:1049400008940895E894BB2766277727CB0197F949
:1049500008950E94BC240C942D250E941F2538F038
:104960000E94262520F0952311F00C9416250C9416
:104970001C2511240C94A3240E94802470F3959F7D
:10498000C1F3950F50E0551F629FF001729FBB2746
:10499000F00DB11D639FAA27F00DB11DAA1F649FE2
:1049A0006627B00DA11D661F829F2227B00DA11D95
:1049B000621F739FB00DA11D621F839FA00D611D1B
:1049C000221F749F3327A00D611D231F849F600D3C
:1049D000211D822F762F6A2F11249F5750409AF065
:1049E000F1F088234AF0EE0FFF1FBB1F661F771FF1
:1049F000881F91505040A9F79E3F510580F00C94BC
:104A000016250C94A3245F3FE4F3983ED4F38695D7
:104A100077956795B795F795E7959F5FC1F7FE2B5B
:104A2000880F911D9695879597F9089597F99F6737
:104A300080E870E060E008959FEF80EC0895002426
:104A40000A941616170618060906089500240A94F3
:104A500012161306140605060895092E0394000C79
:104A600011F4882352F0BB0F40F4BF2B11F460FF08
:104A700004C06F5F7F4F8F4F9F4F0895DB018F936F
:104A80009F930E949525BF91AF91A29F800D911D8C
:104A9000A39F900DB29F900D11240895A1E21A2EAC
:104AA000AA1BBB1BFD010DC0AA1FBB1FEE1FFF1FD2
:104AB000A217B307E407F50720F0A21BB30BE40B22
:104AC000F50B661F771F881F991F1A9469F7609569
:104AD0007095809590959B01AC01BD01CF01089523
:104AE000052E97FB1EF400940E94872557FD07D0E2
:104AF0000E944E2507FC03D04EF40C948725509558
:104B00004095309521953F4F4F4F5F4F08959095B9
:104B10008095709561957F4F8F4F9F4F0895EE0F51
:104B2000FF1F0590F491E02D09940E94A825A59FF0
:104B3000900DB49F900DA49F800D911D1124089598
:104B4000B7FF0C9495250E949525821B930B089521
:104B5000A29FB001B39FC001A39F700D811D1124BE
:104B6000911DB29F700D811D1124911D0895CF9349
:104B7000DF938230910510F482E090E0E091B4037D
:104B8000F091B50320E030E0C0E0D0E0309711F1C3
:104B90004081518148175907C0F04817590761F4FF
:104BA00082819381209719F09B838A832BC09093F5
:104BB000B5038093B40326C02115310519F04217BF
:104BC000530718F49A01BE01DF01EF010280F3815F
:104BD000E02DDCCF2115310509F1281B390B2430DC
:104BE000310590F412968D919C9113976115710582
:104BF00021F0FB019383828304C09093B5038093DB
:104C0000B403FD01329644C0FD01E20FF31F81930E
:104C10009193225031092D933C933AC02091B203D5
:104C20003091B303232B41F42091120130911301F1
:104C30003093B3032093B2032091100130911101FE
:104C40002115310541F42DB73EB740911401509123
:104C50001501241B350BE091B203F091B303E21769
:104C6000F307A0F42E1B3F0B2817390778F0AC018F
:104C70004E5F5F4F2417350748F04E0F5F1F50936C
:104C8000B3034093B2038193919302C0E0E0F0E05C
:104C9000CF01DF91CF9108950F931F93CF93DF93AF
:104CA000009709F48CC0FC013297138212820091A4
:104CB000B4031091B5030115110581F420813181F0
:104CC000820F931F2091B2033091B3032817390745
:104CD00079F5F093B303E093B20371C0D80140E0DB
:104CE00050E0AE17BF0750F412962D913C911397E8
:104CF000AD012115310509F1D901F3CF9D01DA018B
:104D00003383228360817181860F971F82179307F7
:104D100069F4EC0128813981260F371F2E5F3F4F40
:104D2000318320838A819B8193838283452B29F45D
:104D3000F093B503E093B40342C01396FC93EE9353
:104D40001297ED01499159919E01240F351FE217E9
:104D5000F30771F480819181840F951F029611965B
:104D60009C938E938281938113969C938E9312973A
:104D7000E0E0F0E0D80112968D919C911397009796
:104D800019F0F8018C01F6CF8D919C9198012E5F5E
:104D90003F4F820F931F2091B2033091B303281726
:104DA000390769F4309729F41092B5031092B403CF
:104DB00002C0138212821093B3030093B203DF91F7
:104DC000CF911F910F91089581E090E0F8940C9499
:064DD000E926F894FFCF74
:104DD600FFFFFFFF00E100000000000078ECFFFF8E
:104DE6000000B603800000C180810000009CFFFF28
:104DF600FF00000000D0019006A502E601F101CDFA
:104E060002A9026669726D77617265206572726FBA
:104E1600722E2067697665206D6520004B0047007D
:104E26007A206178697320726573657420696E6390
:104E36006F6D706C6574652E204500746F6F20660B
:104E4600657720696E7075747320666F7220636F64
:104E56006D6D616E642E2045006578747261206305
:104E66006861726163746572206F6E207365726922
:104E7600616C20706F72743A20002C2045004E0041
:104E860074696D656F7574006572726F723A20622F
:104E96006F74746C65207374696C6C20696E20671E
:104EA60072697070657200582053746F703A2000F2
:104EB6005A2053746F703A20004772697070657299
:104EC6003A2000446F75626C6520426F74746C659D
:104ED6003A20004772697020506F743A200067725A
:104EE600697070657220706F742076616C756520CC
:104EF600746F6F206C6172676500696E76616C69AC
:104F06006420636F6D6D616E642E2045006D756C57
:104F16007469706C6520636F6D6D616E64732F6369
:104F26006861726163746572732E2045004D00528C
:104F3600004C006C6F6164696E672063616C696226
:104F4600726174696F6E2064656661756C74730056
:104F56000D0A007820617869732072657365742084
:104F6600696E636F6D706C6574652E2045006361B4
:104F76006C6962726174696F6E20706F696E7420FD
:104F8600666F72200061313A200063343A20006671
:104F9600633A200030303A200067673A2000627496
:0C4FA6003A200062663A20002C20000037
:00000001FF
